:100000000C9461000C9473000C9473000C947300B6
:100010000C9473000C9473000C9473000C94730094
:100020000C9473000C9473000C9473000C94730084
:100030000C9473000C9473000C9473000C94730074
:100040000C9418010C9473000C9473000C947300BE
:100050000C9473000C9473000C9473000C94730054
:100060000C9473000C94730000000000240027001F
:100070002A0000000000250028002B0004040404CE
:100080000404040402020202020203030303030342
:10009000020203010204081020408001020408103B
:1000A00020010204081020408040000000090003E5
:1000B000020000040508000000000000000000002D
:1000C000000011241FBECFEFD8E0DEBFCDBF21E07E
:1000D000A0E0B1E001C01D92A930B207E1F70E9493
:1000E00062010C94B6010C940000E7EBF0E024915F
:1000F000E0EAF0E09491E9E8F0E0E491EE23C9F061
:10010000222339F0243001F1A8F4223069F12330A0
:1001100079F1F0E0EE0FFF1FEE58FF4FA591B4917B
:100120002FB7F894EC91811126C090959E239C9353
:100130002FBF0895283071F0293091F0253049F70C
:10014000209180002F7D03C0209180002F77209385
:100150008000DFCF2091B0002F772093B000D9CF5F
:100160002091B0002F7DF9CF24B52F7724BDD1CFBA
:1001700024B52F7DFBCF9E2BDACF3FB7F89480912B
:10018000050190910601A0910701B091080126B5E3
:10019000A89B05C02F3F19F00196A11DB11D3FBFBF
:1001A000BA2FA92F982F8827BC01CD01620F711D8E
:1001B000811D911D43E0660F771F881F991F4A9587
:1001C000D1F708958F929F92AF92BF92CF92DF9214
:1001D000EF92FF920E94BD004B015C0188EEC82E99
:1001E00083E0D82EE12CF12C0E94BD00681979091A
:1001F0008A099B09683E734081059105A8F321E0B7
:10020000C21AD108E108F10888EE880E83E0981E32
:10021000A11CB11CC114D104E104F10429F7FF9021
:10022000EF90DF90CF90BF90AF909F908F90089508
:100230001F920F920FB60F9211242F933F938F931B
:100240009F93AF93BF938091010190910201A09180
:100250000301B09104013091000126E0230F2D37F6
:1002600068F129E8230F0396A11DB11D2093000119
:100270008093010190930201A0930301B0930401C4
:100280008091050190910601A0910701B0910801AC
:100290000196A11DB11D8093050190930601A093C5
:1002A0000701B0930801BF91AF919F918F913F914A
:1002B0002F910F900FBE0F901F9018950296A11DC1
:1002C000B11DD4CF789484B5836084BD85B5836037
:1002D00085BD80916E00816080936E0082E0809386
:1002E00081008091810081608093810080918000F5
:1002F0008160809380008091B10084608093B10020
:100300008091B00081608093B00086E880937A008D
:100310001092C100E0EAF0E02491E9E8F0E0849175
:10032000882399F090E0880F991FFC01E859FF4F4E
:10033000A591B491FC01EE58FF4F859194918FB730
:10034000F894EC91E22BEC938FBFC0E0D0E081E019
:100350000E9475000E94E20080E00E9475000E94E9
:10036000E2002097A1F30E940000F1CFF894FFCFA4
:00000001FF
